{
  "_format": "hh-sol-artifact-1",
  "contractName": "Web3RSVP",
  "sourceName": "contracts/Web3RSVP.sol",
  "abi": [
    {
      "anonymous": false,
      "inputs": [
        {
          "indexed": false,
          "internalType": "bytes32",
          "name": "eventID",
          "type": "bytes32"
        },
        {
          "indexed": false,
          "internalType": "address",
          "name": "attendeeAddress",
          "type": "address"
        }
      ],
      "name": "ConfirmedAttendee",
      "type": "event"
    },
    {
      "anonymous": false,
      "inputs": [
        {
          "indexed": false,
          "internalType": "bytes32",
          "name": "eventID",
          "type": "bytes32"
        }
      ],
      "name": "DepositsPaidOut",
      "type": "event"
    },
    {
      "anonymous": false,
      "inputs": [
        {
          "indexed": false,
          "internalType": "bytes32",
          "name": "eventID",
          "type": "bytes32"
        },
        {
          "indexed": false,
          "internalType": "address",
          "name": "creatorAddress",
          "type": "address"
        },
        {
          "indexed": false,
          "internalType": "uint256",
          "name": "eventTimestamp",
          "type": "uint256"
        },
        {
          "indexed": false,
          "internalType": "uint256",
          "name": "maxCapacity",
          "type": "uint256"
        },
        {
          "indexed": false,
          "internalType": "uint256",
          "name": "deposit",
          "type": "uint256"
        },
        {
          "indexed": false,
          "internalType": "string",
          "name": "eventDataCID",
          "type": "string"
        }
      ],
      "name": "NewEventCreated",
      "type": "event"
    },
    {
      "anonymous": false,
      "inputs": [
        {
          "indexed": false,
          "internalType": "bytes32",
          "name": "eventID",
          "type": "bytes32"
        },
        {
          "indexed": false,
          "internalType": "address",
          "name": "attendeeAddress",
          "type": "address"
        }
      ],
      "name": "NewRSVP",
      "type": "event"
    },
    {
      "anonymous": false,
      "inputs": [
        {
          "indexed": false,
          "internalType": "bytes32",
          "name": "eventID",
          "type": "bytes32"
        }
      ],
      "name": "withdrawDeposits",
      "type": "event"
    },
    {
      "inputs": [
        {
          "internalType": "bytes32",
          "name": "eventId",
          "type": "bytes32"
        }
      ],
      "name": "confirmAllAttendees",
      "outputs": [],
      "stateMutability": "nonpayable",
      "type": "function"
    },
    {
      "inputs": [
        {
          "internalType": "bytes32",
          "name": "eventId",
          "type": "bytes32"
        },
        {
          "internalType": "address",
          "name": "attendee",
          "type": "address"
        }
      ],
      "name": "confirmAttendee",
      "outputs": [],
      "stateMutability": "nonpayable",
      "type": "function"
    },
    {
      "inputs": [
        {
          "internalType": "uint256",
          "name": "eventTimestamp",
          "type": "uint256"
        },
        {
          "internalType": "uint256",
          "name": "deposit",
          "type": "uint256"
        },
        {
          "internalType": "uint256",
          "name": "maxCapacity",
          "type": "uint256"
        },
        {
          "internalType": "string",
          "name": "eventDataCID",
          "type": "string"
        }
      ],
      "name": "createNewEvent",
      "outputs": [],
      "stateMutability": "nonpayable",
      "type": "function"
    },
    {
      "inputs": [
        {
          "internalType": "bytes32",
          "name": "eventId",
          "type": "bytes32"
        }
      ],
      "name": "createNewRSVP",
      "outputs": [],
      "stateMutability": "payable",
      "type": "function"
    },
    {
      "inputs": [
        {
          "internalType": "bytes32",
          "name": "",
          "type": "bytes32"
        }
      ],
      "name": "idToEvent",
      "outputs": [
        {
          "internalType": "bytes32",
          "name": "eventId",
          "type": "bytes32"
        },
        {
          "internalType": "string",
          "name": "eventDataCID",
          "type": "string"
        },
        {
          "internalType": "address",
          "name": "eventOwner",
          "type": "address"
        },
        {
          "internalType": "uint256",
          "name": "eventTimestamp",
          "type": "uint256"
        },
        {
          "internalType": "uint256",
          "name": "deposit",
          "type": "uint256"
        },
        {
          "internalType": "uint256",
          "name": "maxCapacity",
          "type": "uint256"
        },
        {
          "internalType": "bool",
          "name": "paidOut",
          "type": "bool"
        }
      ],
      "stateMutability": "view",
      "type": "function"
    },
    {
      "inputs": [
        {
          "internalType": "bytes32",
          "name": "eventId",
          "type": "bytes32"
        }
      ],
      "name": "withdrawBote",
      "outputs": [],
      "stateMutability": "nonpayable",
      "type": "function"
    },
    {
      "inputs": [
        {
          "internalType": "bytes32",
          "name": "eventId",
          "type": "bytes32"
        }
      ],
      "name": "withdrawUnclaimedDeposits",
      "outputs": [],
      "stateMutability": "nonpayable",
      "type": "function"
    }
  ],
  "bytecode": "0x608060405234801561001057600080fd5b50612629806100206000396000f3fe60806040526004361061006f5760003560e01c80636dcdf2cd1161004e5780636dcdf2cd146100e2578063797475711461010b578063909ef02114610134578063acdbe012146101775761006f565b806292098c14610074578063101bdf761461009d57806317f0165a146100c6575b600080fd5b34801561008057600080fd5b5061009b60048036038101906100969190611ade565b6101a0565b005b3480156100a957600080fd5b506100c460048036038101906100bf9190611a79565b61043e565b005b6100e060048036038101906100db9190611a79565b6107db565b005b3480156100ee57600080fd5b5061010960048036038101906101049190611aa2565b610a6e565b005b34801561011757600080fd5b50610132600480360381019061012d9190611a79565b610f3b565b005b34801561014057600080fd5b5061015b60048036038101906101569190611a79565b6113f3565b60405161016e9796959493929190611f17565b60405180910390f35b34801561018357600080fd5b5061019e60048036038101906101999190611a79565b6114ea565b005b736ce039d5bbf0c91925dd9cdceecf8605b6f4bc4273ffffffffffffffffffffffffffffffffffffffff163373ffffffffffffffffffffffffffffffffffffffff1614610222576040517f08c379a0000000000000000000000000000000000000000000000000000000008152600401610219906120ad565b60405180910390fd5b6000333087878760405160200161023d959493929190611df5565b60405160208183030381529060405280519060200120905060608060405180610120016040528084815260200186868080601f016020809104026020016040519081016040528093929190818152602001838380828437600081840152601f19601f8201169050808301925050505050505081526020013373ffffffffffffffffffffffffffffffffffffffff1681526020018981526020018881526020018781526020018381526020018281526020016000151581525060008085815260200190815260200160002060008201518160000155602082015181600101908051906020019061032d9291906118c3565b5060408201518160020160006101000a81548173ffffffffffffffffffffffffffffffffffffffff021916908373ffffffffffffffffffffffffffffffffffffffff160217905550606082015181600301556080820151816004015560a0820151816005015560c08201518160060190805190602001906103af929190611949565b5060e08201518160070190805190602001906103cc929190611949565b506101008201518160080160006101000a81548160ff0219169083151502179055509050507f2553138c3f9c9008f266dbdbe9fc64f5b71e098d06ef714a190a65a8b9fc6bf383338a898b8a8a60405161042c9796959493929190611ead565b60405180910390a15050505050505050565b60008060008381526020019081526020016000206040518061012001604052908160008201548152602001600182018054610478906122b9565b80601f01602080910402602001604051908101604052809291908181526020018280546104a4906122b9565b80156104f15780601f106104c6576101008083540402835291602001916104f1565b820191906000526020600020905b8154815290600101906020018083116104d457829003601f168201915b505050505081526020016002820160009054906101000a900473ffffffffffffffffffffffffffffffffffffffff1673ffffffffffffffffffffffffffffffffffffffff1673ffffffffffffffffffffffffffffffffffffffff168152602001600382015481526020016004820154815260200160058201548152602001600682018054806020026020016040519081016040528092919081815260200182805480156105f357602002820191906000526020600020905b8160009054906101000a900473ffffffffffffffffffffffffffffffffffffffff1673ffffffffffffffffffffffffffffffffffffffff16815260200190600101908083116105a9575b505050505081526020016007820180548060200260200160405190810160405280929190818152602001828054801561068157602002820191906000526020600020905b8160009054906101000a900473ffffffffffffffffffffffffffffffffffffffff1673ffffffffffffffffffffffffffffffffffffffff1681526020019060010190808311610637575b505050505081526020016008820160009054906101000a900460ff1615151515815250509050806040015173ffffffffffffffffffffffffffffffffffffffff163373ffffffffffffffffffffffffffffffffffffffff1614610719576040517f08c379a0000000000000000000000000000000000000000000000000000000008152600401610710906120ad565b60405180910390fd5b60008160c00151518260800151610730919061218a565b905060003373ffffffffffffffffffffffffffffffffffffffff168260405161075890611e54565b60006040518083038185875af1925050503d8060008114610795576040519150601f19603f3d011682016040523d82523d6000602084013e61079a565b606091505b505090507faf60dd23e1c7077692744d6d15e7b66868a53b3981f9743640ebadbe1eaffc12846040516107cd9190611e69565b60405180910390a150505050565b6000806000838152602001908152602001600020905080600401543414610837576040517f08c379a000000000000000000000000000000000000000000000000000000000815260040161082e9061204d565b60405180910390fd5b806003015442111561087e576040517f08c379a000000000000000000000000000000000000000000000000000000000815260040161087590611fed565b60405180910390fd5b80600501548160060180549050106108cb576040517f08c379a00000000000000000000000000000000000000000000000000000000081526004016108c29061202d565b60405180910390fd5b60005b81600601805490508160ff1610156109cb573373ffffffffffffffffffffffffffffffffffffffff16826006018260ff1681548110610936577f4e487b7100000000000000000000000000000000000000000000000000000000600052603260045260246000fd5b9060005260206000200160009054906101000a900473ffffffffffffffffffffffffffffffffffffffff1673ffffffffffffffffffffffffffffffffffffffff1614156109b8576040517f08c379a00000000000000000000000000000000000000000000000000000000081526004016109af9061200d565b60405180910390fd5b80806109c3906122eb565b9150506108ce565b5080600601339080600181540180825580915050600190039060005260206000200160009091909190916101000a81548173ffffffffffffffffffffffffffffffffffffffff021916908373ffffffffffffffffffffffffffffffffffffffff1602179055507fb79f4240bbdd272d98e02a5db7f0cf156e5fc000961c517670a26eeeec63ed908233604051610a62929190611e84565b60405180910390a15050565b736ce039d5bbf0c91925dd9cdceecf8605b6f4bc4273ffffffffffffffffffffffffffffffffffffffff163373ffffffffffffffffffffffffffffffffffffffff1614610af0576040517f08c379a0000000000000000000000000000000000000000000000000000000008152600401610ae7906120ad565b60405180910390fd5b600080600084815260200190815260200160002090508060020160009054906101000a900473ffffffffffffffffffffffffffffffffffffffff1673ffffffffffffffffffffffffffffffffffffffff163373ffffffffffffffffffffffffffffffffffffffff1614610b98576040517f08c379a0000000000000000000000000000000000000000000000000000000008152600401610b8f906120cd565b60405180910390fd5b600080600090505b82600601805490508160ff161015610ccf578373ffffffffffffffffffffffffffffffffffffffff16836006018260ff1681548110610c08577f4e487b7100000000000000000000000000000000000000000000000000000000600052603260045260246000fd5b9060005260206000200160009054906101000a900473ffffffffffffffffffffffffffffffffffffffff1673ffffffffffffffffffffffffffffffffffffffff161415610cbc57826006018160ff1681548110610c8e577f4e487b7100000000000000000000000000000000000000000000000000000000600052603260045260246000fd5b9060005260206000200160009054906101000a900473ffffffffffffffffffffffffffffffffffffffff1691505b8080610cc7906122eb565b915050610ba0565b508273ffffffffffffffffffffffffffffffffffffffff168173ffffffffffffffffffffffffffffffffffffffff1614610d3e576040517f08c379a0000000000000000000000000000000000000000000000000000000008152600401610d359061208d565b60405180910390fd5b60005b82600701805490508160ff161015610e3e578373ffffffffffffffffffffffffffffffffffffffff16836007018260ff1681548110610da9577f4e487b7100000000000000000000000000000000000000000000000000000000600052603260045260246000fd5b9060005260206000200160009054906101000a900473ffffffffffffffffffffffffffffffffffffffff1673ffffffffffffffffffffffffffffffffffffffff161415610e2b576040517f08c379a0000000000000000000000000000000000000000000000000000000008152600401610e2290611f8d565b60405180910390fd5b8080610e36906122eb565b915050610d41565b50600015158260080160009054906101000a900460ff16151514610e97576040517f08c379a0000000000000000000000000000000000000000000000000000000008152600401610e8e90611fad565b60405180910390fd5b81600701839080600181540180825580915050600190039060005260206000200160009091909190916101000a81548173ffffffffffffffffffffffffffffffffffffffff021916908373ffffffffffffffffffffffffffffffffffffffff1602179055507ff8d1583a733d83bdd3ef5464129d0a95a36d62b382d31c6d0467a61f4264381b8484604051610f2d929190611e84565b60405180910390a150505050565b60008060008381526020019081526020016000206040518061012001604052908160008201548152602001600182018054610f75906122b9565b80601f0160208091040260200160405190810160405280929190818152602001828054610fa1906122b9565b8015610fee5780601f10610fc357610100808354040283529160200191610fee565b820191906000526020600020905b815481529060010190602001808311610fd157829003601f168201915b505050505081526020016002820160009054906101000a900473ffffffffffffffffffffffffffffffffffffffff1673ffffffffffffffffffffffffffffffffffffffff1673ffffffffffffffffffffffffffffffffffffffff168152602001600382015481526020016004820154815260200160058201548152602001600682018054806020026020016040519081016040528092919081815260200182805480156110f057602002820191906000526020600020905b8160009054906101000a900473ffffffffffffffffffffffffffffffffffffffff1673ffffffffffffffffffffffffffffffffffffffff16815260200190600101908083116110a6575b505050505081526020016007820180548060200260200160405190810160405280929190818152602001828054801561117e57602002820191906000526020600020905b8160009054906101000a900473ffffffffffffffffffffffffffffffffffffffff1673ffffffffffffffffffffffffffffffffffffffff1681526020019060010190808311611134575b505050505081526020016008820160009054906101000a900460ff1615151515815250509050806101000151156111ea576040517f08c379a00000000000000000000000000000000000000000000000000000000081526004016111e19061206d565b60405180910390fd5b62093a8081606001516111fd9190612134565b42101561123f576040517f08c379a0000000000000000000000000000000000000000000000000000000008152600401611236906120ed565b60405180910390fd5b806040015173ffffffffffffffffffffffffffffffffffffffff163373ffffffffffffffffffffffffffffffffffffffff16146112b1576040517f08c379a00000000000000000000000000000000000000000000000000000000081526004016112a8906120ad565b60405180910390fd5b60008160e00151518260c00151516112c991906121e4565b905060008260800151826112dd919061218a565b905060018361010001901515908115158152505060003373ffffffffffffffffffffffffffffffffffffffff168260405161131790611e54565b60006040518083038185875af1925050503d8060008114611354576040519150601f19603f3d011682016040523d82523d6000602084013e611359565b606091505b5050905080611375576000846101000190151590811515815250505b806113b5576040517f08c379a00000000000000000000000000000000000000000000000000000000081526004016113ac90611fcd565b60405180910390fd5b7f393073ea1365f611c3d2f240c992960d2b99dc81715555d3fc40fc55ba80af9c856040516113e49190611e69565b60405180910390a15050505050565b600060205280600052604060002060009150905080600001549080600101805461141c906122b9565b80601f0160208091040260200160405190810160405280929190818152602001828054611448906122b9565b80156114955780601f1061146a57610100808354040283529160200191611495565b820191906000526020600020905b81548152906001019060200180831161147857829003601f168201915b5050505050908060020160009054906101000a900473ffffffffffffffffffffffffffffffffffffffff16908060030154908060040154908060050154908060080160009054906101000a900460ff16905087565b736ce039d5bbf0c91925dd9cdceecf8605b6f4bc4273ffffffffffffffffffffffffffffffffffffffff163373ffffffffffffffffffffffffffffffffffffffff161461156c576040517f08c379a0000000000000000000000000000000000000000000000000000000008152600401611563906120ad565b60405180910390fd5b600080600083815260200190815260200160002060405180610120016040529081600082015481526020016001820180546115a6906122b9565b80601f01602080910402602001604051908101604052809291908181526020018280546115d2906122b9565b801561161f5780601f106115f45761010080835404028352916020019161161f565b820191906000526020600020905b81548152906001019060200180831161160257829003601f168201915b505050505081526020016002820160009054906101000a900473ffffffffffffffffffffffffffffffffffffffff1673ffffffffffffffffffffffffffffffffffffffff1673ffffffffffffffffffffffffffffffffffffffff1681526020016003820154815260200160048201548152602001600582015481526020016006820180548060200260200160405190810160405280929190818152602001828054801561172157602002820191906000526020600020905b8160009054906101000a900473ffffffffffffffffffffffffffffffffffffffff1673ffffffffffffffffffffffffffffffffffffffff16815260200190600101908083116116d7575b50505050508152602001600782018054806020026020016040519081016040528092919081815260200182805480156117af57602002820191906000526020600020905b8160009054906101000a900473ffffffffffffffffffffffffffffffffffffffff1673ffffffffffffffffffffffffffffffffffffffff1681526020019060010190808311611765575b505050505081526020016008820160009054906101000a900460ff1615151515815250509050806040015173ffffffffffffffffffffffffffffffffffffffff163373ffffffffffffffffffffffffffffffffffffffff1614611847576040517f08c379a000000000000000000000000000000000000000000000000000000000815260040161183e906120cd565b60405180910390fd5b60005b8160c00151518160ff1610156118be576118ab838360c001518360ff168151811061189e577f4e487b7100000000000000000000000000000000000000000000000000000000600052603260045260246000fd5b6020026020010151610a6e565b80806118b6906122eb565b91505061184a565b505050565b8280546118cf906122b9565b90600052602060002090601f0160209004810192826118f15760008555611938565b82601f1061190a57805160ff1916838001178555611938565b82800160010185558215611938579182015b8281111561193757825182559160200191906001019061191c565b5b50905061194591906119d3565b5090565b8280548282559060005260206000209081019282156119c2579160200282015b828111156119c15782518260006101000a81548173ffffffffffffffffffffffffffffffffffffffff021916908373ffffffffffffffffffffffffffffffffffffffff16021790555091602001919060010190611969565b5b5090506119cf91906119d3565b5090565b5b808211156119ec5760008160009055506001016119d4565b5090565b6000813590506119ff816125ae565b92915050565b600081359050611a14816125c5565b92915050565b60008083601f840112611a2c57600080fd5b8235905067ffffffffffffffff811115611a4557600080fd5b602083019150836001820283011115611a5d57600080fd5b9250929050565b600081359050611a73816125dc565b92915050565b600060208284031215611a8b57600080fd5b6000611a9984828501611a05565b91505092915050565b60008060408385031215611ab557600080fd5b6000611ac385828601611a05565b9250506020611ad4858286016119f0565b9150509250929050565b600080600080600060808688031215611af657600080fd5b6000611b0488828901611a64565b9550506020611b1588828901611a64565b9450506040611b2688828901611a64565b935050606086013567ffffffffffffffff811115611b4357600080fd5b611b4f88828901611a1a565b92509250509295509295909350565b611b6781612218565b82525050565b611b7e611b7982612218565b612315565b82525050565b611b8d8161222a565b82525050565b611b9c81612236565b82525050565b6000611bae8385612123565b9350611bbb838584612277565b611bc4836123a1565b840190509392505050565b6000611bda8261210d565b611be48185612123565b9350611bf4818560208601612286565b611bfd816123a1565b840191505092915050565b6000611c15600f83612123565b9150611c20826123bf565b602082019050919050565b6000611c38601083612123565b9150611c43826123e8565b602082019050919050565b6000611c5b601483612123565b9150611c6682612411565b602082019050919050565b6000611c7e601083612123565b9150611c898261243a565b602082019050919050565b6000611ca1601183612123565b9150611cac82612463565b602082019050919050565b6000611cc4601f83612123565b9150611ccf8261248c565b602082019050919050565b6000611ce7600a83612123565b9150611cf2826124b5565b602082019050919050565b6000611d0a600c83612123565b9150611d15826124de565b602082019050919050565b6000611d2d601283612123565b9150611d3882612507565b602082019050919050565b6000611d50600083612118565b9150611d5b82612530565b600082019050919050565b6000611d73601383612123565b9150611d7e82612533565b602082019050919050565b6000611d96600e83612123565b9150611da18261255c565b602082019050919050565b6000611db9600983612123565b9150611dc482612585565b602082019050919050565b611dd881612260565b82525050565b611def611dea82612260565b612339565b82525050565b6000611e018288611b6d565b601482019150611e118287611b6d565b601482019150611e218286611dde565b602082019150611e318285611dde565b602082019150611e418284611dde565b6020820191508190509695505050505050565b6000611e5f82611d43565b9150819050919050565b6000602082019050611e7e6000830184611b93565b92915050565b6000604082019050611e996000830185611b93565b611ea66020830184611b5e565b9392505050565b600060c082019050611ec2600083018a611b93565b611ecf6020830189611b5e565b611edc6040830188611dcf565b611ee96060830187611dcf565b611ef66080830186611dcf565b81810360a0830152611f09818486611ba2565b905098975050505050505050565b600060e082019050611f2c600083018a611b93565b8181036020830152611f3e8189611bcf565b9050611f4d6040830188611b5e565b611f5a6060830187611dcf565b611f676080830186611dcf565b611f7460a0830185611dcf565b611f8160c0830184611b84565b98975050505050505050565b60006020820190508181036000830152611fa681611c08565b9050919050565b60006020820190508181036000830152611fc681611c2b565b9050919050565b60006020820190508181036000830152611fe681611c4e565b9050919050565b6000602082019050818103600083015261200681611c71565b9050919050565b6000602082019050818103600083015261202681611c94565b9050919050565b6000602082019050818103600083015261204681611cb7565b9050919050565b6000602082019050818103600083015261206681611cda565b9050919050565b6000602082019050818103600083015261208681611cfd565b9050919050565b600060208201905081810360008301526120a681611d20565b9050919050565b600060208201905081810360008301526120c681611d66565b9050919050565b600060208201905081810360008301526120e681611d89565b9050919050565b6000602082019050818103600083015261210681611dac565b9050919050565b600081519050919050565b600081905092915050565b600082825260208201905092915050565b600061213f82612260565b915061214a83612260565b9250827fffffffffffffffffffffffffffffffffffffffffffffffffffffffffffffffff0382111561217f5761217e612343565b5b828201905092915050565b600061219582612260565b91506121a083612260565b9250817fffffffffffffffffffffffffffffffffffffffffffffffffffffffffffffffff04831182151516156121d9576121d8612343565b5b828202905092915050565b60006121ef82612260565b91506121fa83612260565b92508282101561220d5761220c612343565b5b828203905092915050565b600061222382612240565b9050919050565b60008115159050919050565b6000819050919050565b600073ffffffffffffffffffffffffffffffffffffffff82169050919050565b6000819050919050565b600060ff82169050919050565b82818337600083830152505050565b60005b838110156122a4578082015181840152602081019050612289565b838111156122b3576000848401525b50505050565b600060028204905060018216806122d157607f821691505b602082108114156122e5576122e4612372565b5b50919050565b60006122f68261226a565b915060ff82141561230a57612309612343565b5b600182019050919050565b600061232082612327565b9050919050565b6000612332826123b2565b9050919050565b6000819050919050565b7f4e487b7100000000000000000000000000000000000000000000000000000000600052601160045260246000fd5b7f4e487b7100000000000000000000000000000000000000000000000000000000600052602260045260246000fd5b6000601f19601f8301169050919050565b60008160601b9050919050565b7f414c524541445920434c41494d45440000000000000000000000000000000000600082015250565b7f414c52454144592050414944204f555400000000000000000000000000000000600082015250565b7f4661696c656420746f2073656e64204574686572000000000000000000000000600082015250565b7f414c52454144592048415050454e454400000000000000000000000000000000600082015250565b7f414c524541445920434f4e4649524d4544000000000000000000000000000000600082015250565b7f54686973206576656e7420686173207265616368656420636170616369747900600082015250565b7f4e4f5420454e4f55474800000000000000000000000000000000000000000000600082015250565b7f414c524541445920504149440000000000000000000000000000000000000000600082015250565b7f4e4f205253565020544f20434f4e4649524d0000000000000000000000000000600082015250565b50565b7f4d555354204245204556454e54204f574e455200000000000000000000000000600082015250565b7f4e4f5420415554484f52495a4544000000000000000000000000000000000000600082015250565b7f544f4f204541524c590000000000000000000000000000000000000000000000600082015250565b6125b781612218565b81146125c257600080fd5b50565b6125ce81612236565b81146125d957600080fd5b50565b6125e581612260565b81146125f057600080fd5b5056fea26469706673582212203d3e3d162f4da4d5e5e2c98b4a61060f4080e050622659926f093d580b7a8dad64736f6c63430008040033",
  "linkReferences": {},
  "deployedLinkReferences": {}
}